:100000000C942A000C9447000C9447000C94470071
:100010000C9447000C9447000C9447000C94470044
:100020000C9447000C9447000C9447000C94470034
:100030000C9447000C9447000C9447000C94470024
:100040000C94CA060C9447000C9447000C9447008B
:100050000C94470011241FBECFE5D8E0DEBFCDBF12
:1000600010E0A0E6B0E0E8E4FFE102C005900D92E8
:10007000A037B107D9F710E0A0E7B0E001C01D92AA
:10008000A638B107E1F70E946E0C0C94A20F0C94F5
:100090000000EF92FF920F931F937B018C0120E0F1
:1000A00030E040E05FE40E94490388238CF0C801FF
:1000B000B70120E030E040E05FE40E94C1010E940F
:1000C000A9039B01AC01205030404040504806C07D
:1000D000C801B7010E94A9039B01AC01B901CA0183
:1000E0001F910F91FF90EF900895A0E0B0E0EBE733
:1000F000F0E00C946B0FDC012B01FA019C91923023
:1001000008F439C1EB018881823008F433C194309E
:1001100069F4843009F02FC111969C91119789815F
:10012000981709F428C1A0E6B0E025C1843009F48D
:1001300021C18230A9F4923009F01DC19A01AD01AC
:1001400088E0EA010990AE01E90109929E0181501F
:10015000C1F7E201898111969C918923818308C1AD
:10016000923009F407C112962D903C901397EB0141
:100170008A819B811496AD90BD90CD90DC901797AD
:10018000EC80FD800E811F819101281B390BB90184
:1001900037FF04C066277727621B730B6032710537
:1001A0000CF061C0121613066CF537014801062EDB
:1001B00004C096948794779467940A94D2F721E0C8
:1001C00030E040E050E004C0220F331F441F551FB1
:1001D0006A95D2F721503040404050402E213F21B7
:1001E00040235123211531054105510521F021E01E
:1001F00030E040E050E079018A01E628F72808293C
:1002000019293CC0232BD1F1260E371E350146019A
:10021000062E04C096948794779467940A94D2F734
:1002200021E030E040E050E004C0220F331F441FC3
:10023000551F6A95D2F721503040404050402A2146
:100240003B214C215D21211531054105510521F04E
:1002500021E030E040E050E059016A01A628B728CB
:10026000C828D9280BC0821593052CF01C01AA249C
:10027000BB24650103C0EE24FF24870111969C91E5
:10028000D20111968C91981709F445C0992339F041
:10029000A80197012A193B094C095D0906C0A6016E
:1002A00095012E193F09400B510B57FD08C01182D3
:1002B0003382228224833583468357831DC081E0A5
:1002C00081833382228288279927DC01821B930B4A
:1002D000A40BB50B84839583A683B7830DC0220F2F
:1002E000331F441F551F24833583468357838281E0
:1002F000938101979383828324813581468157813D
:10030000DA01C9010197A109B1098F5F9F4FAF4F72
:10031000BF4328F30BC0918333822282EA0CFB1C7B
:100320000C1D1D1DE482F5820683178383E0808304
:10033000248135814681578157FF1AC0C901AA27F8
:1003400097FDA095BA2F81709070A070B0705695EF
:10035000479537952795822B932BA42BB52B848318
:100360009583A683B7838281938101969383828349
:10037000DF0101C0D201CD01CDB7DEB7E2E10C94BF
:10038000870FA0E2B0E0E7ECF1E00C94770F69830F
:100390007A838B839C832D833E834F835887E9E048
:1003A000EE2EF12CEC0EFD1ECE010196B7010E943F
:1003B000D2048E010F5E1F4FCE010596B8010E9438
:1003C000D2048A8991E089278A8BC701B801AE01DE
:1003D000475E5F4F0E9475000E94FD03A096E6E015
:1003E0000C94930FA0E2B0E0E8EFF1E00C94770FEB
:1003F00069837A838B839C832D833E834F835887C5
:10040000F9E0EF2EF12CEC0EFD1ECE010196B701A6
:100410000E94D2048E010F5E1F4FCE010596B801D7
:100420000E94D204C701B801AE01475E5F4F0E942F
:1004300075000E94FD03A096E6E00C94930FA0E2E5
:10044000B0E0E5E2F2E00C946B0F69837A838B8372
:100450009C832D833E834F835887CE010196BE0136
:10046000675F7F4F0E94D204CE010596BE016F5E8A
:100470007F4F0E94D2049985923088F0898982301A
:10048000C8F0943019F4823051F404C0843029F457
:10049000923081F480E690E0C6C0923049F420E0CA
:1004A0009A858A89981321E02A87CE010996BBC0D4
:1004B000823049F420E09A858A89981321E02A8BBA
:1004C000CE014196B0C02D843E844F8458886D88FB
:1004D0007E888F88988CEE24FF248701AA24BB2471
:1004E000650140E050E060E070E0E0E0F0E0C10174
:1004F00081709070892BE9F0E60CF71C081D191D1E
:100500009A01AB012A0D3B1D4C1D5D1D80E090E062
:10051000A0E0B0E0E614F7040805190520F481E036
:1005200090E0A0E0B0E0BA01A901480F591F6A1F8E
:100530007B1FAA0CBB1CCC1CDD1C97FE08C081E0F5
:1005400090E0A0E0B0E0A82AB92ACA2ADB2A3196B6
:10055000E032F10549F0660C771C881C991C569412
:10056000479437942794C3CFFA85EA892B893C892D
:100570008B859C85280F391F2E5F3F4F17C0CA01FE
:1005800081709070892B61F016950795F794E79428
:1005900080E090E0A0E0B0E8E82AF92A0A2B1B2BC3
:1005A00076956795579547952F5F3F4F77FDE7CF36
:1005B0000CC0440F551F661F771F17FD4160EE0CDE
:1005C000FF1C001F111F21503040403090E05907A0
:1005D00090E0690790E4790760F32B8F3C8FDB0193
:1005E000CA018F779070A070B07080349105A1051A
:1005F000B10561F447FD0AC0E114F10401051105DC
:1006000029F0405C5F4F6F4F7F4F40781A8EFE1786
:1006100011F081E08A8F4D8F5E8F6F8F78A383E01A
:10062000898FCE0149960E94FD03A096E2E10C94C9
:10063000870FA8E1B0E0EFE1F3E00C94770F698356
:100640007A838B839C832D833E834F83588789E0F5
:10065000E82EF12CEC0EFD1ECE010196B7010E9492
:10066000D2048E010F5E1F4FCE010596B8010E9485
:10067000D2048985823040F08989823028F0C70110
:10068000B8010E944A0501C08FEF6896E6E00C941D
:10069000930FA8E1B0E0EFE4F3E00C94770F6983E7
:1006A0007A838B839C832D833E834F83588789E095
:1006B000E82EF12CEC0EFD1ECE010196B7010E9432
:1006C000D2048E010F5E1F4FCE010596B8010E9425
:1006D000D2048985823040F08989823028F0C701B0
:1006E000B8010E944A0501C08FEF6896E6E00C94BD
:1006F000930FA8E1B0E0EFE7F3E00C94770F698384
:100700007A838B839C832D833E834F83588789E034
:10071000E82EF12CEC0EFD1ECE010196B7010E94D1
:10072000D2048E010F5E1F4FCE010596B8010E94C4
:10073000D2048985823040F08989823028F0C7014F
:10074000B8010E944A0501C081E06896E6E00C9479
:10075000930FACE0B0E0EFEAF3E00C947B0F698319
:100760007A838B839C83CE010196BE016B5F7F4FA2
:100770000E94D2048D81823061F1823050F1843048
:1007800021F48E81882351F12EC02F81388537FDC9
:1007900020C06E812F3131051CF06623F9F023C093
:1007A0008EE190E0821B930B29853A854B855C8511
:1007B00004C056954795379527958A95D2F76623B5
:1007C000B1F050954095309521953F4F4F4F5F4F79
:1007D0000EC020E030E040E050E009C02FEF3FEFD6
:1007E0004FEF5FE704C020E030E040E050E8B9019F
:1007F000CA012C96E2E00C94970FDF92EF92FF92E1
:100800000F931F93FC01E480F58006811781D1804E
:100810008081823048F480E090E0A0E1B0E0E82AF6
:10082000F92A0A2B1B2BA5C0843009F49FC0823003
:1008300021F4EE24FF24870105C0E114F104010531
:10084000110519F4E0E0F0E096C0628173819FEF3A
:10085000623879070CF05BC022E83FEF261B370BAC
:100860002A3131052CF020E030E040E050E02AC091
:10087000B801A701022E04C0769567955795479554
:100880000A94D2F781E090E0A0E0B0E004C0880FC5
:10089000991FAA1FBB1F2A95D2F70197A109B10979
:1008A0008E219F21A023B1230097A105B10521F03E
:1008B00081E090E0A0E0B0E09A01AB01282B392B59
:1008C0004A2B5B2BDA01C9018F779070A070B07052
:1008D00080349105A105B10539F427FF09C0205CDA
:1008E0003F4F4F4F5F4F04C0215C3F4F4F4F5F4F13
:1008F000E0E0F0E02030A0E03A07A0E04A07A0E402
:100900005A0710F0E1E0F0E079018A0127C0603871
:10091000710564F5FB01E158FF4FD801C7018F77DE
:100920009070A070B07080349105A105B10539F4C4
:10093000E7FE0DC080E490E0A0E0B0E004C08FE3EB
:1009400090E0A0E0B0E0E80EF91E0A1F1B1F17FFA1
:1009500005C016950795F794E794319687E01695AC
:100960000795F794E7948A95D1F705C0EE24FF2404
:100970008701EFEFF0E06E2F679566276795902F60
:100980009F77D794DD24D7948E2F8695492F462BB9
:10099000582F5D29B701CA011F910F91FF90EF9069
:1009A000DF900895FC01DB01408151812281622F9B
:1009B0006F7770E0221F2227221F9381892F880FD3
:1009C000822B282F30E0991F9927991F11969C930D
:1009D000119721153105A9F54115510561057105DD
:1009E00011F482E037C082E89FEF13969C938E93B8
:1009F00012979A01AB0167E0220F331F441F551F66
:100A00006A95D1F783E08C930DC0220F331F441FEA
:100A1000551F12968D919C911397019713969C9355
:100A20008E931297203080E0380780E0480780E4FA
:100A3000580758F314962D933D934D935C93179755
:100A400008952F3F310579F4411551056105710570
:100A500019F484E08C93089564FF03C081E08C93C3
:100A600012C01C9210C02F57304013963C932E9307
:100A7000129783E08C9387E0440F551F661F771F02
:100A80008A95D1F7706414964D935D936D937C9322
:100A9000179708951F93DC01FB019C91923008F495
:100AA00047C08081823008F443C0943051F41196DD
:100AB0001C91843099F58181682F70E0611B710968
:100AC0003FC0843021F0923031F48230B9F181811D
:100AD000882389F12DC011961C9111978230F1F075
:100AE00081811817D9F412962D913C911397828128
:100AF00093818217930794F028173907BCF0149656
:100B00008D919D910D90BC91A02D248135814681C0
:100B10005781281739074A075B0718F4112341F05A
:100B20000AC082179307A407B50740F4112319F0F0
:100B300061E070E005C06FEF7FEF02C060E070E041
:100B4000CB011F910895DF93CF93CDB7DEB71092FD
:100B50007A00109279008FEF9FEF9093720080934C
:100B600071008FEF9FEF90937400809373008FEF6D
:100B70009FEF90937600809375008FEF9FEF909397
:100B80007800809377000E9437080E944C080E94EA
:100B90006808A6E2B0E0E6E2F0E0808180688C932D
:100BA000CF91DF910895DF93CF9300D000D000D094
:100BB000CDB7DEB78C837E836D838FEF8B83A7E207
:100BC000B0E0E7E2F0E090818C81892B8C93A6E283
:100BD000B0E0E6E2F0E0808180648C9303C08B811A
:100BE00081508B83E6E2F0E08081882F90E0807175
:100BF00090709595879595958795959587959595F9
:100C00008795009719F48B81882349F78B81882376
:100C100071F0E5E2F0E08081882F90E0ED81FE81C7
:100C20009183808381E090E09A83898302C01A8255
:100C3000198289819A8126960FB6F894DEBF0FBE7D
:100C4000CDBFCF91DF910895DF93CF9300D0CDB783
:100C5000DEB79A83898310927C0083E080937000D2
:100C600089819A819093800080937F00A7E2B0E011
:100C7000E7E2F0E0208180917C00882F90E0880FEF
:100C8000991FFC01E859FF4F80819181822B8C9341
:100C9000A6E2B0E0E6E2F0E0808188608C93A6E214
:100CA000B0E0E6E2F0E0808180648C930F900F90DA
:100CB000CF91DF910895DF93CF9300D0CDB7DEB70A
:100CC0009A83898382E08093700089819A819093CE
:100CD0007E0080937D0010927B00A7E2B0E0E7E207
:100CE000F0E080818C93A6E2B0E0E6E2F0E0808163
:100CF00088608C93A6E2B0E0E6E2F0E08081806458
:100D00008C930F900F90CF91DF910895DF93CF9345
:100D100000D00F92CDB7DEB789837B836A8381E0F1
:100D2000809370008A819B819093820080938100E0
:100D3000898180937B00A7E2B0E0E7E2F0E0908158
:100D40008981892B8C93A6E2B0E0E6E2F0E0808115
:100D500088608C93A6E2B0E0E6E2F0E080818064F7
:100D60008C930F900F900F90CF91DF910895DF93A8
:100D7000CF9300D0CDB7DEB7E5E2F0E08081882FD9
:100D800090E09A83898389819A810F900F90CF9107
:100D9000DF9108951F920F920FB60F9211240F93B7
:100DA0001F932F933F934F935F936F937F938F93F3
:100DB0009F93AF93BF93EF93FF93DF93CF9300D0B5
:100DC00000D0CDB7DEB780917000282F30E03C8393
:100DD0002B838B819C818230910531F12B813C8169
:100DE0002330310509F4C8C08B819C818130910585
:100DF00009F024C10E94B70690937A00809379008D
:100E00008091810090918200009709F417C1E091D0
:100E10008100F091820080917B00209179003091D7
:100E20007A00B90109950AC180917B00282F30E032
:100E30003A83298389819A8181309105B1F1298191
:100E40003A81223031052CF489819A81009771F022
:100E5000F5C029813A812230310509F445C08981E4
:100E60009A818330910509F45EC0E8C00E94B706FC
:100E7000909372008093710081E080937B00A7E2E1
:100E8000B0E0E7E2F0E0808181608C93A6E2B0E020
:100E9000E6E2F0E0808188608C93A6E2B0E0E6E2D2
:100EA000F0E0808180648C93C9C00E94B706909363
:100EB00074008093730082E080937B00A7E2B0E02F
:100EC000E7E2F0E0808182608C93A6E2B0E0E6E2A7
:100ED000F0E0808188608C93A6E2B0E0E6E2F0E08A
:100EE000808180648C93AAC00E94B706909376009C
:100EF0008093750083E080937B00A7E2B0E0E7E297
:100F0000F0E0808183608C93A6E2B0E0E6E2F0E05E
:100F1000808188608C93A6E2B0E0E6E2F0E0808118
:100F200080648C938BC00E94B70690937800809366
:100F3000770080917D0090917E000097A9F0E0916C
:100F40007D00F0917E0020917100309172004091FF
:100F500073005091740060917500709176008091DB
:100F60007700909178000995A6E2B0E0E6E2F0E023
:100F70008081877F8C9362C080917C00082F10E075
:100F80000E94B7069C01C801880F991FFC01E8590F
:100F9000FF4F3183208380917C008330A0F58091C6
:100FA0007C00882F90E00196880F991FFC01E8597A
:100FB000FF4F80819181009731F180917C008F5F9C
:100FC00080937C00A7E2B0E0E7E2F0E0208180912E
:100FD0007C00882F90E0880F991FFC01E859FF4F93
:100FE00080819181822B8C93A6E2B0E0E6E2F0E072
:100FF000808188608C93A6E2B0E0E6E2F0E0808138
:1010000080648C931BC080917F009091800000973A
:1010100039F0E0917F00F091800088E690E009953A
:10102000A6E2B0E0E6E2F0E08081877F8C93A6E262
:10103000B0E0E6E2F0E080818F7B8C930F900F9020
:101040000F900F90CF91DF91FF91EF91BF91AF91F2
:101050009F918F917F916F915F914F913F912F91D0
:101060001F910F910F900FBE0F901F901895DF9357
:10107000CF93CDB7DEB7A7E2B0E0E7E2F0E0808142
:101080008F778C93A7E2B0E0E7E2F0E080818064A4
:101090008C93CF91DF910895DF93CF93CDB7DEB7D7
:1010A000A6E2B0E0E6E2F0E0808181608C93A6E207
:1010B000B0E0E6E2F0E0808182608C93A6E2B0E0EE
:1010C000E6E2F0E080818B7F8C93CF91DF910895F1
:1010D000DF93CF93CDB7DEB7A7E2B0E0E7E2F0E071
:1010E000808180628C93CF91DF910895DF93CF93BD
:1010F00000D000D00F92CDB7DEB78A836B8381E03A
:1011000089838A81282F30E03D832C838C819D81C7
:1011100081309105D1F02C813D81223031052CF4B4
:101120008C819D81009761F01FC02C813D81223010
:10113000310581F08C819D818330910581F014C04F
:10114000EAE3F0E08B81808310C0E7E3F0E08B817D
:1011500080830BC0E4E3F0E08B81808306C0E1E391
:10116000F0E08B81808301C0198289810F900F90FC
:101170000F900F900F90CF91DF910895DF93CF9351
:10118000CDB7DEB72E970FB6F894DEBF0FBECDBF3A
:101190008A836B834C8381E089838A81282F30E0A6
:1011A0003E872D878D859E858130910509F451C03C
:1011B0002D853E85223031052CF48D859E85009746
:1011C00071F0F5C02D853E852230310509F47BC0D4
:1011D0008D859E858330910509F4AFC0E8C08C8170
:1011E000282F30E03C872B878B859C85009731F03A
:1011F0002B853C8521303105B1F029C0AAE3B0E050
:10120000EAE3F0E08081482F8B81282F30E081E0F5
:1012100090E0022E02C0880F991F0A94E2F7809591
:1012200084238C93C5C0AAE3B0E0EAE3F0E08081B8
:10123000482F8B81282F30E081E090E0022E02C001
:10124000880F991F0A94E2F7842B8C93B1C01982FE
:10125000AFC08C81282F30E03A87298789859A850D
:10126000009731F029853A8521303105B1F029C048
:10127000A7E3B0E0E7E3F0E08081482F8B81282FDF
:1012800030E081E090E0022E02C0880F991F0A949E
:10129000E2F7809584238C938BC0A7E3B0E0E7E36B
:1012A000F0E08081482F8B81282F30E081E090E0B2
:1012B000022E02C0880F991F0A94E2F7842B8C93A8
:1012C00077C0198275C08C81282F30E038872F8332
:1012D0008F819885009731F02F8138852130310535
:1012E000B1F029C0A4E3B0E0E4E3F0E08081482F4E
:1012F0008B81282F30E081E090E0022E02C0880F21
:10130000991F0A94E2F7809584238C9351C0A4E33B
:10131000B0E0E4E3F0E08081482F8B81282F30E0BB
:1013200081E090E0022E02C0880F991F0A94E2F734
:10133000842B8C933DC019823BC08C81282F30E0D8
:101340003E832D838D819E81009731F02D813E81DA
:1013500021303105B1F029C0A1E3B0E0E1E3F0E0D4
:101360008081482F8B81282F30E081E090E0022E91
:1013700002C0880F991F0A94E2F7809584238C930A
:1013800017C0A1E3B0E0E1E3F0E08081482F8B815A
:10139000282F30E081E090E0022E02C0880F991FD4
:1013A0000A94E2F7842B8C9303C0198201C019823E
:1013B00089812E960FB6F894DEBF0FBECDBFCF91B8
:1013C000DF910895DF93CF9300D000D00F92CDB777
:1013D000DEB78A836B8381E089838A81282F30E09E
:1013E0003D832C838C819D8181309105D1F02C81AE
:1013F0003D81223031052CF48C819D81009761F074
:101400001FC02C813D812230310581F08C819D816E
:101410008330910581F014C0EBE3F0E08B81808391
:1014200010C0E8E3F0E08B8180830BC0E5E3F0E0DF
:101430008B81808306C0E2E3F0E08B81808301C072
:10144000198289810F900F900F900F900F90CF917C
:10145000DF910895DF93CF93CDB7DEB72E970FB608
:10146000F894DEBF0FBECDBF8A836B834C8381E0CF
:1014700089838A81282F30E03E872D878D859E8540
:101480008130910509F451C02D853E85223031050A
:101490002CF48D859E85009771F0F5C02D853E85D5
:1014A0002230310509F47BC08D859E8583309105FE
:1014B00009F4AFC0E8C08C81282F30E03C872B872F
:1014C0008B859C85009731F02B853C85213031053B
:1014D000B1F029C0ABE3B0E0EBE3F0E08081482F4E
:1014E0008B81282F30E081E090E0022E02C0880F2F
:1014F000991F0A94E2F7809584238C93C5C0ABE3CF
:10150000B0E0EBE3F0E08081482F8B81282F30E0C2
:1015100081E090E0022E02C0880F991F0A94E2F742
:10152000842B8C93B1C01982AFC08C81282F30E0FE
:101530003A87298789859A85009731F029853A85E8
:1015400021303105B1F029C0A8E3B0E0E8E3F0E0D4
:101550008081482F8B81282F30E081E090E0022E9F
:1015600002C0880F991F0A94E2F7809584238C9318
:101570008BC0A8E3B0E0E8E3F0E08081482F8B81E6
:10158000282F30E081E090E0022E02C0880F991FE2
:101590000A94E2F7842B8C9377C0198275C08C81F2
:1015A000282F30E038872F838F819885009731F07E
:1015B0002F81388521303105B1F029C0A5E3B0E095
:1015C000E5E3F0E08081482F8B81282F30E081E037
:1015D00090E0022E02C0880F991F0A94E2F78095CE
:1015E00084238C9351C0A5E3B0E0E5E3F0E0808173
:1015F000482F8B81282F30E081E090E0022E02C03E
:10160000880F991F0A94E2F7842B8C933DC01982AE
:101610003BC08C81282F30E03E832D838D819E81BD
:10162000009731F02D813E8121303105B1F029C084
:10163000A2E3B0E0E2E3F0E08081482F8B81282F25
:1016400030E081E090E0022E02C0880F991F0A94DA
:10165000E2F7809584238C9317C0A2E3B0E0E2E325
:10166000F0E08081482F8B81282F30E081E090E0EE
:10167000022E02C0880F991F0A94E2F7842B8C93E4
:1016800003C0198201C0198289812E960FB6F89481
:10169000DEBF0FBECDBFCF91DF910895DF93CF9313
:1016A00000D000D000D0CDB7DEB78A837C836B83B7
:1016B0008A81282F30E03E832D838D819E81813069
:1016C0009105E1F02D813E81223031052CF48D8190
:1016D0009E81009761F027C02D813E812230310527
:1016E000A1F08D819E8183309105B1F01CC0E9E3AA
:1016F000F0E08081EB81FC81808316C0E6E3F0E0BE
:101700008081EB81FC8180830FC0E3E3F0E0808186
:10171000EB81FC81808308C0E0E3F0E08081EB8115
:10172000FC81808301C01982898126960FB6F894C6
:10173000DEBF0FBECDBFCF91DF910895DF93CF9372
:10174000CDB7DEB727970FB6F894DEBF0FBECDBF7B
:101750008A836B835D834C838A81282F30E03F83AB
:101760002E834E815F8141305105C1F18E819F8171
:101770008230910534F42E813F812115310571F0BD
:101780008DC04E815F814230510509F447C08E8182
:101790009F818330910509F461C080C0E9E3F0E0E6
:1017A0008081482F50E08B81282F30E081E090E04D
:1017B00002C0880F991F2A95E2F79A01282339233E
:1017C0008B81882F90E0A90102C0559547958A9595
:1017D000E2F7CA01EC81FD81808361C0E6E3F0E0BD
:1017E0008081482F50E08B81282F30E081E090E00D
:1017F00002C0880F991F2A95E2F79A0128233923FE
:101800008B81882F90E0A90102C0559547958A9554
:10181000E2F7CA01EC81FD81808341C0E3E3F0E09F
:101820008081482F50E08B81282F30E081E090E0CC
:1018300002C0880F991F2A95E2F79A0128233923BD
:101840008B81882F90E0A90102C0559547958A9514
:10185000E2F7CA01EC81FD81808321C0E0E3F0E082
:101860008081482F50E08B81282F30E081E090E08C
:1018700002C0880F991F2A95E2F79A01282339237D
:101880008B81882F90E0A90102C0559547958A95D4
:10189000E2F7CA01EC81FD81808301C01982898150
:1018A00027960FB6F894DEBF0FBECDBFCF91DF9164
:1018B0000895DF93CF9300D0CDB7DEB79A838983A5
:1018C00089819A81909385008093840081E0809340
:1018D00083000F900F90CF91DF9108950F931F9386
:1018E000DF93CF93CDB7DEB7C654D0400FB6F89490
:1018F000DEBF0FBECDBF0E94A3051092830080E023
:1019000060E040E00E94BE0883E065E041E00E94A4
:10191000BE0883E066E041E00E94BE0883E067E025
:1019200041E00E94BE08AFE5B0E0EFE5F0E0808165
:1019300080688C9383E065E041E00E942A0A83E09E
:1019400066E041E00E942A0A83E067E041E00E94ED
:101950002A0AFE01ED5BFF4F80E090E0AAE7B4E4C5
:1019600080839183A283B3838E01015C1F4FFE01AC
:10197000ED5BFF4F608171818281938120E030E0D7
:101980004AEF54E40E941F02DC01CB01F80180837E
:101990009183A283B383FE01FF966081718182816E
:1019A000938120E030E040E85FE30E9479038823E0
:1019B0002CF481E090E09EAF8DAF46C0FE01FF9613
:1019C000608171818281938120E03FEF4FE757E48E
:1019D0000E941903181664F5FE01ED5BFF4F60814C
:1019E00071818281938120E030E040E251E40E94E5
:1019F0001F02DC01CB01BC01CD010E944900DC01CA
:101A0000CB019EAF8DAF0FC088EC90E09CAF8BAF49
:101A10008BAD9CAD0197F1F79CAF8BAF8DAD9EADBB
:101A200001979EAF8DAF8DAD9EAD009769F716C043
:101A3000FE01FF9660817181828193810E9449003D
:101A4000DC01CB019EAF8DAF8DAD9EAD9AAF89AF5E
:101A500089AD9AAD0197F1F79AAF89AF89E59CE01E
:101A60000E942406809183008823E1F3E0918400A2
:101A7000F091850080819181FFEF8F3F9F07B1F347
:101A800083E065E041E00E942A0A83E066E040E0EE
:101A90000E942A0A83E067E040E00E942A0A80E070
:101AA00090E0AAE7B4E48DAB9EABAFABB8AF6DA945
:101AB0007EA98FA998AD20E030E04AEF54E40E945F
:101AC0001F02DC01CB0189AB9AABABABBCAB69A904
:101AD0007AA98BA99CA920E030E040E85FE30E944E
:101AE000790388232CF481E090E098AB8FA73FC066
:101AF00069A97AA98BA99CA920E03FEF4FE757E499
:101B00000E94190318164CF56DA97EA98FA998ADEE
:101B100020E030E040E251E40E941F02DC01CB01F2
:101B2000BC01CD010E944900DC01CB0198AB8FA71D
:101B30000FC088EC90E09EA78DA78DA59EA501976C
:101B4000F1F79EA78DA78FA598A9019798AB8FA7AE
:101B50008FA598A9009769F714C069A97AA98BA9DC
:101B60009CA90E944900DC01CB0198AB8FA78FA5EF
:101B700098A99CA78BA78BA59CA50197F1F79CA77B
:101B80008BA78091840090918500FC013296808122
:101B900091812FEF8F3F9207A1F383E065E040E052
:101BA0000E942A0A83E066E041E00E942A0A83E05C
:101BB00067E040E00E942A0A80E090E0AAE7B4E4EF
:101BC0008FA398A7A9A7BAA76FA178A589A59AA559
:101BD00020E030E04AEF54E40E941F02DC01CB0118
:101BE0008BA39CA3ADA3BEA36BA17CA18DA19EA141
:101BF00020E030E040E85FE30E94790388232CF482
:101C000081E090E09AA389A33FC06BA17CA18DA144
:101C10009EA120E03FEF4FE757E40E9419031816FA
:101C20004CF56FA178A589A59AA520E030E040E2A7
:101C300051E40E941F02DC01CB01BC01CD010E94D6
:101C40004900DC01CB019AA389A30FC088EC90E086
:101C500098A38F8F8F8D98A10197F1F798A38F8FFD
:101C600089A19AA101979AA389A389A19AA1009712
:101C700069F714C06BA17CA18DA19EA10E944900AF
:101C8000DC01CB019AA389A389A19AA19E8F8D8F94
:101C90008D8D9E8D0197F1F79E8F8D8F80918400A1
:101CA00090918500FC01349680819181EFEF8F3F08
:101CB0009E07A1F383E065E040E00E942A0A83E0EA
:101CC00066E040E00E942A0A83E067E041E00E946B
:101CD0002A0A80E090E0AAE7B4E4898F9A8FAB8F5C
:101CE000BC8F698D7A8D8B8D9C8D20E030E04AEF22
:101CF00054E40E941F02DC01CB018D8B9E8BAF8BC5
:101D0000B88F6D897E898F89988D20E030E040E81A
:101D10005FE30E94790388232CF481E090E09C8BA0
:101D20008B8B3FC06D897E898F89988D20E03FEF36
:101D30004FE757E40E94190318164CF5698D7A8D08
:101D40008B8D9C8D20E030E040E251E40E941F0228
:101D5000DC01CB01BC01CD010E944900DC01CB01BB
:101D60009C8B8B8B0FC088EC90E09A8B898B898938
:101D70009A890197F1F79A8B898B8B899C890197B6
:101D80009C8B8B8B8B899C89009769F714C06D891C
:101D90007E898F89988D0E944900DC01CB019C8B44
:101DA0008B8B8B899C89988B8F878F8598890197DE
:101DB000F1F7988B8F878091840090918500FC01CA
:101DC000369680819181FFEF8F3F9F07A1F383E0DB
:101DD00065E040E00E942A0A83E066E041E00E945C
:101DE0002A0A83E067E040E00E942A0A80E090E04F
:101DF000AAE7B4E48B879C87AD87BE876B857C851B
:101E00008D859E8520E030E04AEF54E40E941F0259
:101E1000DC01CB018F839887A987BA876F8178858A
:101E200089859A8520E030E040E85FE30E947903ED
:101E300088232CF481E090E09E838D833FC06F81E6
:101E4000788589859A8520E03FEF4FE757E40E9427
:101E5000190318164CF56B857C858D859E8520E0D1
:101E600030E040E251E40E941F02DC01CB01BC01E2
:101E7000CD010E944900DC01CB019E838D830FC000
:101E800088EC90E09C838B838B819C810197F1F798
:101E90009C838B838D819E8101979E838D838D8111
:101EA0009E81009769F714C06F81788589859A852E
:101EB0000E944900DC01CB019E838D838D819E8130
:101EC0009A83898389819A810197F1F79A8389831B
:101ED000109283002FCD2F923F924F925F926F927C
:101EE0007F928F929F92AF92BF92CF92DF92EF92AA
:101EF000FF920F931F93CF93DF93CDB7DEB7CA1B2B
:101F0000DB0B0FB6F894DEBF0FBECDBF09942A8855
:101F1000398848885F846E847D848C849B84AA84FD
:101F2000B984C884DF80EE80FD800C811B81AA818A
:101F3000B981CE0FD11D0FB6F894DEBF0FBECDBF55
:081F4000ED010895F894FFCFB4
:101F48000000000000000000000001000200030083
:00000001FF
