:100000000C942A000C9447000C9447000C94470071
:100010000C9447000C9447000C9447000C94470044
:100020000C9447000C9447000C9447000C94470034
:100030000C9447000C9447000C9447000C94470024
:100040000C94A1020C9447000C9447000C944700B8
:100050000C94470011241FBECFE5D8E0DEBFCDBF12
:1000600010E0A0E6B0E0EAE0F0E102C005900D92F9
:10007000A436B107D9F710E0A4E6B0E001C01D92A4
:10008000A138B107E1F70E9495070C9403080C947E
:100090000000DF93CF93CDB7DEB7109266001092C9
:1000A000650010926400A7E2B0E0E7E2F0E0808132
:1000B0008F778C93A7E2B0E0E7E2F0E08081806484
:1000C0008C93A6E2B0E0E6E2F0E0808181608C9360
:1000D000A6E2B0E0E6E2F0E0808182608C93A6E2E6
:1000E000B0E0E6E2F0E080818B7F8C93A7E2B0E0A5
:1000F000E7E2F0E0808180628C93A6E2B0E0E6E285
:10010000F0E0808180688C93CF91DF910895DF9338
:10011000CF9300D000D0CDB7DEB79A83898382E039
:10012000809368001092670089819A8190936C0097
:1001300080936B0080916700882309F083C08091D1
:100140006700813009F07EC080916700823009F03D
:1001500079C080916700833009F074C08091670096
:10016000282F30E03C832B838B819C81813091054B
:1001700059F12B813C81223031052CF48B819C81FB
:10018000009769F05FC02B813C812230310589F1F5
:100190008B819C818330910509F440C053C08091CC
:1001A0006000882F90E00E940002A6E2B0E0E6E244
:1001B000F0E0808188608C93A6E2B0E0E6E2F0E0B7
:1001C000808180648C933EC080916100882F90E094
:1001D0000E940002A6E2B0E0E6E2F0E080818860E2
:1001E0008C93A6E2B0E0E6E2F0E0808180648C933C
:1001F00029C080916200882F90E00E940002A6E250
:10020000B0E0E6E2F0E0808188608C93A6E2B0E0A6
:10021000E6E2F0E0808180648C9314C080916300FA
:10022000882F90E00E940002A6E2B0E0E6E2F0E053
:10023000808188608C93A6E2B0E0E6E2F0E0808105
:1002400080648C93A6E2B0E0E6E2F0E08081886012
:100250008C93A6E2B0E0E6E2F0E0808180648C93CB
:100260000F900F900F900F90CF91DF910895DF9333
:10027000CF9300D000D00F92CDB7DEB789837B83B8
:100280006A8381E0809368008A819B8190937600E5
:10029000809375008981282F30E03D832C838C81E9
:1002A0009D818330910509F450C02C813D8124301B
:1002B00031057CF48C819D818130910571F12C8117
:1002C0003D8122303105ACF58C819D810097C9F0CC
:1002D00078C02C813D812530310509F44EC08C81D8
:1002E0009D8185309105ECF12C813D8126303105D1
:1002F00009F44FC08C819D818730910509F455C068
:1003000060C0A7E2B0E0E7E2F0E090818981892B4C
:100310008C938981809367005DC0A7E2B0E0E7E23B
:10032000F0E090818981892B8C938981809367008B
:1003300051C0A7E2B0E0E7E2F0E090818981892B2B
:100340008C9389818093670045C0A7E2B0E0E7E223
:10035000F0E090818981892B8C938981809367005B
:1003600039C0A7E2B0E0E7E2F0E090818981892B13
:100370008C938981809367002DC0A7E2B0E0E7E20B
:10038000F0E090818981892B8C938981809367002B
:1003900021C0A7E2B0E0E7E2F0E090818981892BFB
:1003A0008C9389818093670015C0A7E2B0E0E7E2F3
:1003B000F0E090818981892B8C93898180936700FB
:1003C00009C0A7E2B0E0E7E2F0E080818C93898188
:1003D00080936700A6E2B0E0E6E2F0E0808188600A
:1003E0008C93A6E2B0E0E6E2F0E0808180648C933A
:1003F0000F900F900F900F900F90CF91DF91089575
:10040000DF93CF9300D00F92CDB7DEB78983898178
:10041000282F30E03B832A838A819B81833091059A
:1004200009F446C02A813B81243031057CF48A815D
:100430009B818130910551F12A813B812230310528
:1004400074F58A819B810097C1F05FC02A813B814E
:100450002530310509F43EC08A819B8185309105A4
:1004600084F12A813B8126303105E9F18A819B8123
:100470008730910509F440C048C0A7E2B0E0E7E248
:10048000F0E090818981892B8C9345C0A7E2B0E090
:10049000E7E2F0E090818981892B8C933CC0A7E250
:1004A000B0E0E7E2F0E090818981892B8C9333C042
:1004B000A7E2B0E0E7E2F0E090818981892B8C939C
:1004C0002AC0A7E2B0E0E7E2F0E090818981892BC1
:1004D0008C9321C0A7E2B0E0E7E2F0E0908189814F
:1004E000892B8C9318C0A7E2B0E0E7E2F0E090819E
:1004F0008981892B8C930FC0A7E2B0E0E7E2F0E09E
:1005000090818981892B8C9306C0E7E2F0E0A7E215
:10051000B0E08C9180830F900F900F90CF91DF917E
:100520000895DF93CF93CDB7DEB7E5E2F0E08081A9
:10053000882F90E090936A0080936900CF91DF91BB
:1005400008951F920F920FB60F9211242F933F938D
:100550004F935F936F937F938F939F93AF93BF93CB
:10056000EF93FF93DF93CF9300D000D0CDB7DEB7EA
:1005700080916800282F30E03C832B838B819C8105
:100580008130910531F02B813C8122303105C1F061
:1005900091C00E9491028091690090916A009093AD
:1005A000660080936500E0917500F091760080917F
:1005B00067002091650030916600B90109957AC005
:1005C00080916700282F30E03A83298389819A81BE
:1005D0008130910529F129813A81223031052CF4AD
:1005E00089819A81009761F050C029813A81223037
:1005F000310531F189819A818330910589F145C0B6
:100600000E9491028091690090916A0090936E001F
:1006100080936D00809167008F5F8093670035C085
:100620000E9491028091690090916A0090937000FD
:1006300080936F00809167008F5F8093670025C073
:100640000E9491028091690090916A0090937200DB
:1006500080937100809167008F5F8093670015C061
:100660000E9491028091690090916A0090937400B9
:1006700080937300809167008F5F80936700809103
:100680006700843011F410926700E0916B00F091E4
:100690006C0020916D0030916E0040916F00509180
:1006A0007000609171007091720080917300909160
:1006B000740009950F900F900F900F90CF91DF91DC
:1006C000FF91EF91BF91AF919F918F917F916F912A
:1006D0005F914F913F912F910F900FBE0F901F9000
:1006E0001895DF93CF9300D000D00F92CDB7DEB72F
:1006F0008A836B8381E089838A81282F30E03D8360
:100700002C838C819D8181309105D1F02C813D819C
:10071000223031052CF48C819D81009761F01FC03F
:100720002C813D812230310581F08C819D81833087
:10073000910581F014C0EAE3F0E08B81808310C062
:10074000E7E3F0E08B8180830BC0E4E3F0E08B8192
:10075000808306C0E1E3F0E08B81808301C01982D1
:1007600089810F900F900F900F900F90CF91DF9194
:100770000895DF93CF93CDB7DEB72E970FB6F894D9
:10078000DEBF0FBECDBF8A836B834C8381E089833C
:100790008A81282F30E03E872D878D859E85813088
:1007A000910509F451C02D853E85223031052CF488
:1007B0008D859E85009771F0F5C02D853E85223090
:1007C000310509F47BC08D859E858330910509F440
:1007D000AFC0E8C08C81282F30E03C872B878B8509
:1007E0009C85009731F02B853C8521303105B1F097
:1007F00029C0AAE3B0E0EAE3F0E08081482F8B81D2
:10080000282F30E081E090E0022E02C0880F991F6F
:100810000A94E2F7809584238C93C5C0AAE3B0E0E4
:10082000EAE3F0E08081482F8B81282F30E081E0DF
:1008300090E0022E02C0880F991F0A94E2F7842BE1
:100840008C93B1C01982AFC08C81282F30E03A87D9
:10085000298789859A85009731F029853A85213045
:100860003105B1F029C0A7E3B0E0E7E3F0E0808113
:10087000482F8B81282F30E081E090E0022E02C0CB
:10088000880F991F0A94E2F7809584238C938BC07C
:10089000A7E3B0E0E7E3F0E08081482F8B81282FC9
:1008A00030E081E090E0022E02C0880F991F0A9488
:1008B000E2F7842B8C9377C0198275C08C81282F26
:1008C00030E038872F838F819885009731F02F8112
:1008D000388521303105B1F029C0A4E3B0E0E4E36C
:1008E000F0E08081482F8B81282F30E081E090E07C
:1008F000022E02C0880F991F0A94E2F78095842384
:100900008C9351C0A4E3B0E0E4E3F0E08081482F91
:100910008B81282F30E081E090E0022E02C0880F0A
:10092000991F0A94E2F7842B8C933DC019823BC037
:100930008C81282F30E03E832D838D819E8100970E
:1009400031F02D813E8121303105B1F029C0A1E384
:10095000B0E0E1E3F0E08081482F8B81282F30E088
:1009600081E090E0022E02C0880F991F0A94E2F7FE
:10097000809584238C9317C0A1E3B0E0E1E3F0E01D
:100980008081482F8B81282F30E081E090E0022E7B
:1009900002C0880F991F0A94E2F7842B8C9303C03E
:1009A000198201C0198289812E960FB6F894DEBF94
:1009B0000FBECDBFCF91DF910895DF93CF9300D0CD
:1009C00000D00F92CDB7DEB78A836B8381E0898335
:1009D0008A81282F30E03D832C838C819D8181305A
:1009E0009105D1F02C813D81223031052CF48C8190
:1009F0009D81009761F01FC02C813D81223031051F
:100A000081F08C819D818330910581F014C0EBE3EE
:100A1000F0E08B81808310C0E8E3F0E08B8180837D
:100A20000BC0E5E3F0E08B81808306C0E2E3F0E0F9
:100A30008B81808301C0198289810F900F900F9064
:100A40000F900F90CF91DF910895DF93CF93CDB7A3
:100A5000DEB72E970FB6F894DEBF0FBECDBF8A83E8
:100A60006B834C8381E089838A81282F30E03E8725
:100A70002D878D859E858130910509F451C02D8586
:100A80003E85223031052CF48D859E85009771F0CE
:100A9000F5C02D853E852230310509F47BC08D855A
:100AA0009E858330910509F4AFC0E8C08C81282F62
:100AB00030E03C872B878B859C85009731F02B8518
:100AC0003C8521303105B1F029C0ABE3B0E0EBE368
:100AD000F0E08081482F8B81282F30E081E090E08A
:100AE000022E02C0880F991F0A94E2F78095842392
:100AF0008C93C5C0ABE3B0E0EBE3F0E08081482F1E
:100B00008B81282F30E081E090E0022E02C0880F18
:100B1000991F0A94E2F7842B8C93B1C01982AFC05D
:100B20008C81282F30E03A87298789859A8500971C
:100B300031F029853A8521303105B1F029C0A8E38B
:100B4000B0E0E8E3F0E08081482F8B81282F30E08F
:100B500081E090E0022E02C0880F991F0A94E2F70C
:100B6000809584238C938BC0A8E3B0E0E8E3F0E0A9
:100B70008081482F8B81282F30E081E090E0022E89
:100B800002C0880F991F0A94E2F7842B8C9377C0D8
:100B9000198275C08C81282F30E038872F838F8190
:100BA0009885009731F02F81388521303105B1F0DB
:100BB00029C0A5E3B0E0E5E3F0E08081482F8B8118
:100BC000282F30E081E090E0022E02C0880F991FAC
:100BD0000A94E2F7809584238C9351C0A5E3B0E09A
:100BE000E5E3F0E08081482F8B81282F30E081E021
:100BF00090E0022E02C0880F991F0A94E2F7842B1E
:100C00008C933DC019823BC08C81282F30E03E83FD
:100C10002D838D819E81009731F02D813E81213081
:100C20003105B1F029C0A2E3B0E0E2E3F0E0808159
:100C3000482F8B81282F30E081E090E0022E02C007
:100C4000880F991F0A94E2F7809584238C9317C02C
:100C5000A2E3B0E0E2E3F0E08081482F8B81282F0F
:100C600030E081E090E0022E02C0880F991F0A94C4
:100C7000E2F7842B8C9303C0198201C01982898109
:100C80002E960FB6F894DEBF0FBECDBFCF91DF9189
:100C90000895DF93CF9300D000D000D0CDB7DEB75A
:100CA0008A837C836B838A81282F30E03E832D8367
:100CB0008D819E8181309105E1F02D813E81223030
:100CC00031052CF48D819E81009761F027C02D8124
:100CD0003E8122303105A1F08D819E8183309105C6
:100CE000B1F01CC0E9E3F0E08081EB81FC818083FE
:100CF00016C0E6E3F0E08081EB81FC8180830FC0C9
:100D0000E3E3F0E08081EB81FC81808308C0E0E3D5
:100D1000F0E08081EB81FC81808301C019828981B0
:100D200026960FB6F894DEBF0FBECDBFCF91DF91F0
:100D30000895DF93CF93CDB7DEB727970FB6F8941A
:100D4000DEBF0FBECDBF8A836B835D834C838A81F8
:100D5000282F30E03F832E834E815F814130510543
:100D6000C1F18E819F818230910534F42E813F81C3
:100D70002115310571F08DC04E815F8142305105E2
:100D800009F447C08E819F818330910509F461C0C9
:100D900080C0E9E3F0E08081482F50E08B81282F6C
:100DA00030E081E090E002C0880F991F2A95E2F7B9
:100DB0009A01282339238B81882F90E0A90102C052
:100DC000559547958A95E2F7CA01EC81FD818083AC
:100DD00061C0E6E3F0E08081482F50E08B81282F4E
:100DE00030E081E090E002C0880F991F2A95E2F779
:100DF0009A01282339238B81882F90E0A90102C012
:100E0000559547958A95E2F7CA01EC81FD8180836B
:100E100041C0E3E3F0E08081482F50E08B81282F30
:100E200030E081E090E002C0880F991F2A95E2F738
:100E30009A01282339238B81882F90E0A90102C0D1
:100E4000559547958A95E2F7CA01EC81FD8180832B
:100E500021C0E0E3F0E08081482F50E08B81282F13
:100E600030E081E090E002C0880F991F2A95E2F7F8
:100E70009A01282339238B81882F90E0A90102C091
:100E8000559547958A95E2F7CA01EC81FD818083EB
:100E900001C01982898127960FB6F894DEBF0FBE74
:100EA000CDBFCF91DF910895DF93CF93CDB7DEB75C
:100EB0002D970FB6F894DEBF0FBECDBF29833A83BE
:100EC0004B835C836D837E838F83988789E790E073
:100ED0009A878987FE013196FC87EB87F8E0FD87CA
:100EE000EB85FC8500808B859C8501969C878B8794
:100EF000E985FA85008289859A8501969A8789878E
:100F00009D8591509D87ED85EE2351F781E090E01E
:100F100090937800809377002D960FB6F894DEBFFB
:100F20000FBECDBFCF91DF910895DF93CF93CDB7A3
:100F3000DEB70E944900109278001092770084E595
:100F400097E00E948700AFE5B0E0EFE5F0E0808138
:100F500080688C9380E060E040E00E94B90383E009
:100F600065E041E00E94B90383E066E041E00E9451
:100F7000B90383E067E041E00E94B9038091790002
:100F800090917A008333910580F483E065E041E03D
:100F90000E94250583E066E040E00E94250583E08D
:100FA00067E040E00E942505CACF809179009091CA
:100FB0007A0083339105B8F08091790090917A009E
:100FC0008536910580F483E065E040E00E942505C8
:100FD00083E066E041E00E94250583E067E040E0B1
:100FE0000E942505ACCF83E065E040E00E94250526
:100FF00083E066E040E00E94250583E067E041E091
:0A1000000E9425059CCFF894FFCF55
:04100A0000010203DC
:00000001FF
